{
  "_format": "hh-sol-artifact-1",
  "contractName": "HTSTokenOwner",
  "sourceName": "contracts/HTSTokenOwner.sol",
  "abi": [
    {
      "inputs": [],
      "stateMutability": "nonpayable",
      "type": "constructor"
    },
    {
      "inputs": [
        {
          "internalType": "address",
          "name": "tokenAddress",
          "type": "address"
        },
        {
          "internalType": "uint256",
          "name": "amount",
          "type": "uint256"
        }
      ],
      "name": "burnToken",
      "outputs": [
        {
          "internalType": "bool",
          "name": "",
          "type": "bool"
        }
      ],
      "stateMutability": "nonpayable",
      "type": "function"
    },
    {
      "inputs": [],
      "name": "erc20address",
      "outputs": [
        {
          "internalType": "address",
          "name": "",
          "type": "address"
        }
      ],
      "stateMutability": "view",
      "type": "function"
    },
    {
      "inputs": [
        {
          "internalType": "address",
          "name": "tokenAddress",
          "type": "address"
        },
        {
          "internalType": "uint256",
          "name": "amount",
          "type": "uint256"
        }
      ],
      "name": "mintToken",
      "outputs": [
        {
          "internalType": "bool",
          "name": "",
          "type": "bool"
        }
      ],
      "stateMutability": "nonpayable",
      "type": "function"
    },
    {
      "inputs": [
        {
          "internalType": "address",
          "name": "_erc20address",
          "type": "address"
        }
      ],
      "name": "setERC20Address",
      "outputs": [],
      "stateMutability": "nonpayable",
      "type": "function"
    },
    {
      "inputs": [
        {
          "internalType": "bytes",
          "name": "data",
          "type": "bytes"
        }
      ],
      "name": "toString",
      "outputs": [
        {
          "internalType": "string",
          "name": "",
          "type": "string"
        }
      ],
      "stateMutability": "pure",
      "type": "function"
    },
    {
      "inputs": [
        {
          "internalType": "address",
          "name": "to",
          "type": "address"
        },
        {
          "internalType": "uint256",
          "name": "amount",
          "type": "uint256"
        }
      ],
      "name": "transfer",
      "outputs": [
        {
          "internalType": "bool",
          "name": "",
          "type": "bool"
        }
      ],
      "stateMutability": "nonpayable",
      "type": "function"
    },
    {
      "inputs": [
        {
          "internalType": "address",
          "name": "tokenAddress",
          "type": "address"
        },
        {
          "internalType": "address",
          "name": "from",
          "type": "address"
        },
        {
          "internalType": "address",
          "name": "to",
          "type": "address"
        },
        {
          "internalType": "uint256",
          "name": "amount",
          "type": "uint256"
        }
      ],
      "name": "transfer",
      "outputs": [
        {
          "internalType": "bool",
          "name": "",
          "type": "bool"
        }
      ],
      "stateMutability": "nonpayable",
      "type": "function"
    }
  ],
  "bytecode": "0x608060405234801561001057600080fd5b50611a5b806100206000396000f3fe608060405234801561001057600080fd5b506004361061007d5760003560e01c806379c650681161005b57806379c65068146100ec578063a9059cbb1461011c578063d1df306c1461014c578063f18d03cc1461017c5761007d565b806341bec0d2146100825780636a83b7e91461009e57806371aad10d146100bc575b600080fd5b61009c60048036038101906100979190610e22565b6101ac565b005b6100a661027e565b6040516100b39190610e5e565b60405180910390f35b6100d660048036038101906100d19190610fbf565b6102a2565b6040516100e39190611090565b60405180910390f35b610106600480360381019061010191906110e8565b61059c565b6040516101139190611143565b60405180910390f35b610136600480360381019061013191906110e8565b6106a5565b6040516101439190611143565b60405180910390f35b610166600480360381019061016191906110e8565b6107ed565b6040516101739190611143565b60405180910390f35b6101966004803603810190610191919061115e565b6108ec565b6040516101a39190611143565b60405180910390f35b600073ffffffffffffffffffffffffffffffffffffffff1660008054906101000a900473ffffffffffffffffffffffffffffffffffffffff1673ffffffffffffffffffffffffffffffffffffffff161461023b576040517f08c379a000000000000000000000000000000000000000000000000000000000815260040161023290611211565b60405180910390fd5b806000806101000a81548173ffffffffffffffffffffffffffffffffffffffff021916908373ffffffffffffffffffffffffffffffffffffffff16021790555050565b60008054906101000a900473ffffffffffffffffffffffffffffffffffffffff1681565b606060006040518060400160405280601081526020017f303132333435363738396162636465660000000000000000000000000000000081525090506000600284516102ee9190611260565b60026102fa91906112ba565b67ffffffffffffffff81111561031357610312610e94565b5b6040519080825280601f01601f1916602001820160405280156103455781602001600182028036833780820191505090505b5090507f30000000000000000000000000000000000000000000000000000000000000008160008151811061037d5761037c611310565b5b60200101907effffffffffffffffffffffffffffffffffffffffffffffffffffffffffffff1916908160001a9053507f7800000000000000000000000000000000000000000000000000000000000000816001815181106103e1576103e0611310565b5b60200101907effffffffffffffffffffffffffffffffffffffffffffffffffffffffffffff1916908160001a90535060005b84518110156105915782600486838151811061043257610431611310565b5b602001015160f81c60f81b7effffffffffffffffffffffffffffffffffffffffffffffffffffffffffffff1916901c60f81c60ff168151811061047857610477611310565b5b602001015160f81c60f81b826002836104919190611260565b600261049d91906112ba565b815181106104ae576104ad611310565b5b60200101907effffffffffffffffffffffffffffffffffffffffffffffffffffffffffffff1916908160001a90535082600f60f81b8683815181106104f6576104f5611310565b5b602001015160f81c60f81b1660f81c60ff168151811061051957610518611310565b5b602001015160f81c60f81b826002836105329190611260565b600361053e91906112ba565b8151811061054f5761054e611310565b5b60200101907effffffffffffffffffffffffffffffffffffffffffffffffffffffffffffff1916908160001a90535080806105899061133f565b915050610413565b508092505050919050565b60008060009054906101000a900473ffffffffffffffffffffffffffffffffffffffff1673ffffffffffffffffffffffffffffffffffffffff163373ffffffffffffffffffffffffffffffffffffffff161461062d576040517f08c379a0000000000000000000000000000000000000000000000000000000008152600401610624906113fa565b60405180910390fd5b600080600061068b8686600067ffffffffffffffff81111561065257610651610e94565b5b60405190808252806020026020018201604052801561068557816020015b60608152602001906001900390816106705790505b506109a1565b92509250925061069a83610b19565b935050505092915050565b60008060009054906101000a900473ffffffffffffffffffffffffffffffffffffffff1673ffffffffffffffffffffffffffffffffffffffff163373ffffffffffffffffffffffffffffffffffffffff1614610736576040517f08c379a000000000000000000000000000000000000000000000000000000000815260040161072d906113fa565b60405180910390fd5b60008060009054906101000a900473ffffffffffffffffffffffffffffffffffffffff1673ffffffffffffffffffffffffffffffffffffffff166310fe9ae86040518163ffffffff1660e01b8152600401602060405180830381865afa1580156107a4573d6000803e3d6000fd5b505050506040513d601f19601f820116820180604052508101906107c8919061142f565b905060006107d882308787610b6a565b90506107e381610b19565b9250505092915050565b60008060009054906101000a900473ffffffffffffffffffffffffffffffffffffffff1673ffffffffffffffffffffffffffffffffffffffff163373ffffffffffffffffffffffffffffffffffffffff161461087e576040517f08c379a0000000000000000000000000000000000000000000000000000000008152600401610875906113fa565b60405180910390fd5b6000806108d58585600067ffffffffffffffff8111156108a1576108a0610e94565b5b6040519080825280602002602001820160405280156108cf5781602001602082028036833780820191505090505b50610c88565b915091506108e282610b19565b9250505092915050565b60008060009054906101000a900473ffffffffffffffffffffffffffffffffffffffff1673ffffffffffffffffffffffffffffffffffffffff163373ffffffffffffffffffffffffffffffffffffffff161461097d576040517f08c379a0000000000000000000000000000000000000000000000000000000008152600401610974906113fa565b60405180910390fd5b600061098b86868686610b6a565b905061099681610b19565b915050949350505050565b600080606060008061016773ffffffffffffffffffffffffffffffffffffffff1663278e0b8860e01b8989896040516024016109df93929190611596565b604051602081830303815290604052907bffffffffffffffffffffffffffffffffffffffffffffffffffffffff19166020820180517bffffffffffffffffffffffffffffffffffffffffffffffffffffffff8381831617835250505050604051610a499190611610565b6000604051808303816000865af19150503d8060008114610a86576040519150601f19603f3d011682016040523d82523d6000602084013e610a8b565b606091505b509150915081610ae757601560008067ffffffffffffffff811115610ab357610ab2610e94565b5b604051908082528060200260200182016040528015610ae15781602001602082028036833780820191505090505b50610afc565b80806020019051810190610afb919061178d565b5b8260030b9250809550819650829750505050505093509350939050565b6000601660030b8214610b61576040517f08c379a0000000000000000000000000000000000000000000000000000000008152600401610b5890611848565b60405180910390fd5b60019050919050565b600080600061016773ffffffffffffffffffffffffffffffffffffffff1663eca3691760e01b88888888604051602401610ba79493929190611877565b604051602081830303815290604052907bffffffffffffffffffffffffffffffffffffffffffffffffffffffff19166020820180517bffffffffffffffffffffffffffffffffffffffffffffffffffffffff8381831617835250505050604051610c119190611610565b6000604051808303816000865af19150503d8060008114610c4e576040519150601f19603f3d011682016040523d82523d6000602084013e610c53565b606091505b509150915081610c64576015610c79565b80806020019051810190610c7891906118bc565b5b60030b92505050949350505050565b60008060008061016773ffffffffffffffffffffffffffffffffffffffff1663acb9cff960e01b888888604051602401610cc4939291906119a7565b604051602081830303815290604052907bffffffffffffffffffffffffffffffffffffffffffffffffffffffff19166020820180517bffffffffffffffffffffffffffffffffffffffffffffffffffffffff8381831617835250505050604051610d2e9190611610565b6000604051808303816000865af19150503d8060008114610d6b576040519150601f19603f3d011682016040523d82523d6000602084013e610d70565b606091505b509150915081610d835760156000610d98565b80806020019051810190610d9791906119e5565b5b8160030b915080945081955050505050935093915050565b6000604051905090565b600080fd5b600080fd5b600073ffffffffffffffffffffffffffffffffffffffff82169050919050565b6000610def82610dc4565b9050919050565b610dff81610de4565b8114610e0a57600080fd5b50565b600081359050610e1c81610df6565b92915050565b600060208284031215610e3857610e37610dba565b5b6000610e4684828501610e0d565b91505092915050565b610e5881610de4565b82525050565b6000602082019050610e736000830184610e4f565b92915050565b600080fd5b600080fd5b6000601f19601f8301169050919050565b7f4e487b7100000000000000000000000000000000000000000000000000000000600052604160045260246000fd5b610ecc82610e83565b810181811067ffffffffffffffff82111715610eeb57610eea610e94565b5b80604052505050565b6000610efe610db0565b9050610f0a8282610ec3565b919050565b600067ffffffffffffffff821115610f2a57610f29610e94565b5b610f3382610e83565b9050602081019050919050565b82818337600083830152505050565b6000610f62610f5d84610f0f565b610ef4565b905082815260208101848484011115610f7e57610f7d610e7e565b5b610f89848285610f40565b509392505050565b600082601f830112610fa657610fa5610e79565b5b8135610fb6848260208601610f4f565b91505092915050565b600060208284031215610fd557610fd4610dba565b5b600082013567ffffffffffffffff811115610ff357610ff2610dbf565b5b610fff84828501610f91565b91505092915050565b600081519050919050565b600082825260208201905092915050565b60005b83811015611042578082015181840152602081019050611027565b83811115611051576000848401525b50505050565b600061106282611008565b61106c8185611013565b935061107c818560208601611024565b61108581610e83565b840191505092915050565b600060208201905081810360008301526110aa8184611057565b905092915050565b6000819050919050565b6110c5816110b2565b81146110d057600080fd5b50565b6000813590506110e2816110bc565b92915050565b600080604083850312156110ff576110fe610dba565b5b600061110d85828601610e0d565b925050602061111e858286016110d3565b9150509250929050565b60008115159050919050565b61113d81611128565b82525050565b60006020820190506111586000830184611134565b92915050565b6000806000806080858703121561117857611177610dba565b5b600061118687828801610e0d565b945050602061119787828801610e0d565b93505060406111a887828801610e0d565b92505060606111b9878288016110d3565b91505092959194509250565b7f4552433230206164647265737320616c726561647920646566696e6564000000600082015250565b60006111fb601d83611013565b9150611206826111c5565b602082019050919050565b6000602082019050818103600083015261122a816111ee565b9050919050565b7f4e487b7100000000000000000000000000000000000000000000000000000000600052601160045260246000fd5b600061126b826110b2565b9150611276836110b2565b9250817fffffffffffffffffffffffffffffffffffffffffffffffffffffffffffffffff04831182151516156112af576112ae611231565b5b828202905092915050565b60006112c5826110b2565b91506112d0836110b2565b9250827fffffffffffffffffffffffffffffffffffffffffffffffffffffffffffffffff0382111561130557611304611231565b5b828201905092915050565b7f4e487b7100000000000000000000000000000000000000000000000000000000600052603260045260246000fd5b600061134a826110b2565b91507fffffffffffffffffffffffffffffffffffffffffffffffffffffffffffffffff82141561137d5761137c611231565b5b600182019050919050565b7f43616c6c6572206973206e6f7420486564657261455243323020636f6e74726160008201527f6374000000000000000000000000000000000000000000000000000000000000602082015250565b60006113e4602283611013565b91506113ef82611388565b604082019050919050565b60006020820190508181036000830152611413816113d7565b9050919050565b60008151905061142981610df6565b92915050565b60006020828403121561144557611444610dba565b5b60006114538482850161141a565b91505092915050565b600067ffffffffffffffff82169050919050565b6114798161145c565b82525050565b600081519050919050565b600082825260208201905092915050565b6000819050602082019050919050565b600081519050919050565b600082825260208201905092915050565b60006114d2826114ab565b6114dc81856114b6565b93506114ec818560208601611024565b6114f581610e83565b840191505092915050565b600061150c83836114c7565b905092915050565b6000602082019050919050565b600061152c8261147f565b611536818561148a565b9350836020820285016115488561149b565b8060005b8581101561158457848403895281516115658582611500565b945061157083611514565b925060208a0199505060018101905061154c565b50829750879550505050505092915050565b60006060820190506115ab6000830186610e4f565b6115b86020830185611470565b81810360408301526115ca8184611521565b9050949350505050565b600081905092915050565b60006115ea826114ab565b6115f481856115d4565b9350611604818560208601611024565b80840191505092915050565b600061161c82846115df565b915081905092915050565b60008160030b9050919050565b61163d81611627565b811461164857600080fd5b50565b60008151905061165a81611634565b92915050565b6116698161145c565b811461167457600080fd5b50565b60008151905061168681611660565b92915050565b600067ffffffffffffffff8211156116a7576116a6610e94565b5b602082029050602081019050919050565b600080fd5b60008160070b9050919050565b6116d3816116bd565b81146116de57600080fd5b50565b6000815190506116f0816116ca565b92915050565b60006117096117048461168c565b610ef4565b9050808382526020820190506020840283018581111561172c5761172b6116b8565b5b835b81811015611755578061174188826116e1565b84526020840193505060208101905061172e565b5050509392505050565b600082601f83011261177457611773610e79565b5b81516117848482602086016116f6565b91505092915050565b6000806000606084860312156117a6576117a5610dba565b5b60006117b48682870161164b565b93505060206117c586828701611677565b925050604084015167ffffffffffffffff8111156117e6576117e5610dbf565b5b6117f28682870161175f565b9150509250925092565b7f4572726f72000000000000000000000000000000000000000000000000000000600082015250565b6000611832600583611013565b915061183d826117fc565b602082019050919050565b6000602082019050818103600083015261186181611825565b9050919050565b611871816116bd565b82525050565b600060808201905061188c6000830187610e4f565b6118996020830186610e4f565b6118a66040830185610e4f565b6118b36060830184611868565b95945050505050565b6000602082840312156118d2576118d1610dba565b5b60006118e08482850161164b565b91505092915050565b600081519050919050565b600082825260208201905092915050565b6000819050602082019050919050565b61191e816116bd565b82525050565b60006119308383611915565b60208301905092915050565b6000602082019050919050565b6000611954826118e9565b61195e81856118f4565b935061196983611905565b8060005b8381101561199a5781516119818882611924565b975061198c8361193c565b92505060018101905061196d565b5085935050505092915050565b60006060820190506119bc6000830186610e4f565b6119c96020830185611470565b81810360408301526119db8184611949565b9050949350505050565b600080604083850312156119fc576119fb610dba565b5b6000611a0a8582860161164b565b9250506020611a1b85828601611677565b915050925092905056fea2646970667358221220404f8456f98bb88400085caff80a7667e6ccd23c885971ffbb2813fd8709d8b864736f6c634300080a0033",
  "linkReferences": {},
  "deployedLinkReferences": {}
}